{
  "_format": "hh-sol-artifact-1",
  "contractName": "CarbonCredits",
  "sourceName": "contracts/carboncreditmarketplace.sol",
  "abi": [
    {
      "inputs": [
        {
          "internalType": "uint256",
          "name": "",
          "type": "uint256"
        }
      ],
      "name": "credits",
      "outputs": [
        {
          "internalType": "uint256",
          "name": "id",
          "type": "uint256"
        },
        {
          "internalType": "address",
          "name": "owner",
          "type": "address"
        },
        {
          "internalType": "uint256",
          "name": "amount",
          "type": "uint256"
        },
        {
          "internalType": "string",
          "name": "ipfsHash",
          "type": "string"
        }
      ],
      "stateMutability": "view",
      "type": "function"
    },
    {
      "inputs": [
        {
          "internalType": "uint256",
          "name": "_creditId",
          "type": "uint256"
        }
      ],
      "name": "getCredit",
      "outputs": [
        {
          "components": [
            {
              "internalType": "uint256",
              "name": "id",
              "type": "uint256"
            },
            {
              "internalType": "address",
              "name": "owner",
              "type": "address"
            },
            {
              "internalType": "uint256",
              "name": "amount",
              "type": "uint256"
            },
            {
              "internalType": "string",
              "name": "ipfsHash",
              "type": "string"
            }
          ],
          "internalType": "struct CarbonCredits.Credit",
          "name": "",
          "type": "tuple"
        }
      ],
      "stateMutability": "view",
      "type": "function"
    },
    {
      "inputs": [
        {
          "internalType": "address",
          "name": "_owner",
          "type": "address"
        },
        {
          "internalType": "uint256",
          "name": "_amount",
          "type": "uint256"
        },
        {
          "internalType": "string",
          "name": "_ipfsHash",
          "type": "string"
        }
      ],
      "name": "issueCredits",
      "outputs": [],
      "stateMutability": "nonpayable",
      "type": "function"
    },
    {
      "inputs": [],
      "name": "nextCreditId",
      "outputs": [
        {
          "internalType": "uint256",
          "name": "",
          "type": "uint256"
        }
      ],
      "stateMutability": "view",
      "type": "function"
    },
    {
      "inputs": [
        {
          "internalType": "uint256",
          "name": "_creditId",
          "type": "uint256"
        },
        {
          "internalType": "address",
          "name": "_newOwner",
          "type": "address"
        }
      ],
      "name": "transferCredits",
      "outputs": [],
      "stateMutability": "nonpayable",
      "type": "function"
    }
  ],
  "bytecode": "0x608060405234801561001057600080fd5b50610de6806100206000396000f3fe608060405234801561001057600080fd5b50600436106100575760003560e01c8063036a1c221461005c57806371be92521461008f578063d93b2dd0146100ab578063da304e4d146100c7578063fc00b798146100f7575b600080fd5b6100766004803603810190610071919061057e565b610115565b604051610086949392919061068b565b60405180910390f35b6100a960048036038101906100a49190610838565b6101ed565b005b6100c560048036038101906100c091906108a7565b6102ca565b005b6100e160048036038101906100dc919061057e565b6103c7565b6040516100ee91906109b2565b60405180910390f35b6100ff6104f0565b60405161010c91906109d4565b60405180910390f35b60016020528060005260406000206000915090508060000154908060010160009054906101000a900473ffffffffffffffffffffffffffffffffffffffff169080600201549080600301805461016a90610a1e565b80601f016020809104026020016040519081016040528092919081815260200182805461019690610a1e565b80156101e35780601f106101b8576101008083540402835291602001916101e3565b820191906000526020600020905b8154815290600101906020018083116101c657829003601f168201915b5050505050905084565b604051806080016040528060005481526020018473ffffffffffffffffffffffffffffffffffffffff1681526020018381526020018281525060016000805481526020019081526020016000206000820151816000015560208201518160010160006101000a81548173ffffffffffffffffffffffffffffffffffffffff021916908373ffffffffffffffffffffffffffffffffffffffff1602179055506040820151816002015560608201518160030190816102aa9190610bfb565b509050506000808154809291906102c090610cfc565b9190505550505050565b3373ffffffffffffffffffffffffffffffffffffffff166001600084815260200190815260200160002060010160009054906101000a900473ffffffffffffffffffffffffffffffffffffffff1673ffffffffffffffffffffffffffffffffffffffff161461036e576040517f08c379a000000000000000000000000000000000000000000000000000000000815260040161036590610d90565b60405180910390fd5b806001600084815260200190815260200160002060010160006101000a81548173ffffffffffffffffffffffffffffffffffffffff021916908373ffffffffffffffffffffffffffffffffffffffff1602179055505050565b6103cf6104f6565b60016000838152602001908152602001600020604051806080016040529081600082015481526020016001820160009054906101000a900473ffffffffffffffffffffffffffffffffffffffff1673ffffffffffffffffffffffffffffffffffffffff1673ffffffffffffffffffffffffffffffffffffffff1681526020016002820154815260200160038201805461046790610a1e565b80601f016020809104026020016040519081016040528092919081815260200182805461049390610a1e565b80156104e05780601f106104b5576101008083540402835291602001916104e0565b820191906000526020600020905b8154815290600101906020018083116104c357829003601f168201915b5050505050815250509050919050565b60005481565b604051806080016040528060008152602001600073ffffffffffffffffffffffffffffffffffffffff16815260200160008152602001606081525090565b6000604051905090565b600080fd5b600080fd5b6000819050919050565b61055b81610548565b811461056657600080fd5b50565b60008135905061057881610552565b92915050565b6000602082840312156105945761059361053e565b5b60006105a284828501610569565b91505092915050565b6105b481610548565b82525050565b600073ffffffffffffffffffffffffffffffffffffffff82169050919050565b60006105e5826105ba565b9050919050565b6105f5816105da565b82525050565b600081519050919050565b600082825260208201905092915050565b60005b8381101561063557808201518184015260208101905061061a565b60008484015250505050565b6000601f19601f8301169050919050565b600061065d826105fb565b6106678185610606565b9350610677818560208601610617565b61068081610641565b840191505092915050565b60006080820190506106a060008301876105ab565b6106ad60208301866105ec565b6106ba60408301856105ab565b81810360608301526106cc8184610652565b905095945050505050565b6106e0816105da565b81146106eb57600080fd5b50565b6000813590506106fd816106d7565b92915050565b600080fd5b600080fd5b7f4e487b7100000000000000000000000000000000000000000000000000000000600052604160045260246000fd5b61074582610641565b810181811067ffffffffffffffff821117156107645761076361070d565b5b80604052505050565b6000610777610534565b9050610783828261073c565b919050565b600067ffffffffffffffff8211156107a3576107a261070d565b5b6107ac82610641565b9050602081019050919050565b82818337600083830152505050565b60006107db6107d684610788565b61076d565b9050828152602081018484840111156107f7576107f6610708565b5b6108028482856107b9565b509392505050565b600082601f83011261081f5761081e610703565b5b813561082f8482602086016107c8565b91505092915050565b6000806000606084860312156108515761085061053e565b5b600061085f868287016106ee565b935050602061087086828701610569565b925050604084013567ffffffffffffffff81111561089157610890610543565b5b61089d8682870161080a565b9150509250925092565b600080604083850312156108be576108bd61053e565b5b60006108cc85828601610569565b92505060206108dd858286016106ee565b9150509250929050565b6108f081610548565b82525050565b6108ff816105da565b82525050565b600082825260208201905092915050565b6000610921826105fb565b61092b8185610905565b935061093b818560208601610617565b61094481610641565b840191505092915050565b600060808301600083015161096760008601826108e7565b50602083015161097a60208601826108f6565b50604083015161098d60408601826108e7565b50606083015184820360608601526109a58282610916565b9150508091505092915050565b600060208201905081810360008301526109cc818461094f565b905092915050565b60006020820190506109e960008301846105ab565b92915050565b7f4e487b7100000000000000000000000000000000000000000000000000000000600052602260045260246000fd5b60006002820490506001821680610a3657607f821691505b602082108103610a4957610a486109ef565b5b50919050565b60008190508160005260206000209050919050565b60006020601f8301049050919050565b600082821b905092915050565b600060088302610ab17fffffffffffffffffffffffffffffffffffffffffffffffffffffffffffffffff82610a74565b610abb8683610a74565b95508019841693508086168417925050509392505050565b6000819050919050565b6000610af8610af3610aee84610548565b610ad3565b610548565b9050919050565b6000819050919050565b610b1283610add565b610b26610b1e82610aff565b848454610a81565b825550505050565b600090565b610b3b610b2e565b610b46818484610b09565b505050565b5b81811015610b6a57610b5f600082610b33565b600181019050610b4c565b5050565b601f821115610baf57610b8081610a4f565b610b8984610a64565b81016020851015610b98578190505b610bac610ba485610a64565b830182610b4b565b50505b505050565b600082821c905092915050565b6000610bd260001984600802610bb4565b1980831691505092915050565b6000610beb8383610bc1565b9150826002028217905092915050565b610c04826105fb565b67ffffffffffffffff811115610c1d57610c1c61070d565b5b610c278254610a1e565b610c32828285610b6e565b600060209050601f831160018114610c655760008415610c53578287015190505b610c5d8582610bdf565b865550610cc5565b601f198416610c7386610a4f565b60005b82811015610c9b57848901518255600182019150602085019450602081019050610c76565b86831015610cb85784890151610cb4601f891682610bc1565b8355505b6001600288020188555050505b505050505050565b7f4e487b7100000000000000000000000000000000000000000000000000000000600052601160045260246000fd5b6000610d0782610548565b91507fffffffffffffffffffffffffffffffffffffffffffffffffffffffffffffffff8203610d3957610d38610ccd565b5b600182019050919050565b7f4e6f7420746865206f776e657200000000000000000000000000000000000000600082015250565b6000610d7a600d83610606565b9150610d8582610d44565b602082019050919050565b60006020820190508181036000830152610da981610d6d565b905091905056fea2646970667358221220c8b980d22bb459bbb00ae7e51ccece307826b963a61c4de03bb974458f0c558d64736f6c63430008180033",
  "linkReferences": {},
  "deployedLinkReferences": {}
}